:10000000E8C0000016C1000014C1000012C10000C9
:1000100010C100000EC100000CC100000AC10000A8
:1000200008C1000006C1000004C1000002C10000B8
:1000300000C10000FEC00000FCC00000FAC00000CB
:10004000F8C00000F6C00000F4C00000F2C00000DC
:10005000F0C00000EEC00000ECC00000F6C40000DC
:10006000E8C00000BCC4000091C40000E2C0000071
:10007000E0C00000DEC00000DCC00000DAC000000C
:10008000D8C00000D6C00000D4C00000D2C000001C
:10009000D0C00000CEC00000CCC0000020C50000D1
:1000A000C8C00000C6C00000C4C00000C2C000003C
:1000B000C0C00000BEC00000BCC00000BAC000004C
:1000C000B8C00000B6C00000B4C00000B2C000005C
:1000D000B0C00000AEC00000ACC00000AAC000006C
:1000E000A8C0000000002200250028002B002E00E0
:1000F0003100340002010000050108010B01050573
:100100000505070508080808020202020A0A08088D
:1001100004040404010101010101010103030303BB
:1001200003030303040707070C0C0C0C0C0C0C0C4A
:100130000202020206060606060606060B0B0B0B5B
:100140000B0B0B0B01021020200808102040102080
:10015000408002010201080402010102040810208B
:100160004080804020100804020180040201804089
:1001700020100804020108040201010204081020F2
:100180004080010204081020408000000A0B020990
:100190000C0D0E0807030401000000000000000021
:1001A000000000000000000000000000000000004F
:1001B000000000000000121110000000000000000C
:1001C000000000000000000000000000000000002F
:1001D000920611241FBECFEFD1E2DEBFCDBF00E0FB
:1001E0000CBF12E0A0E0B2E0E6E2F6E100E00BBFF7
:1001F00002C007900D92A233B107D9F723E0A2E322
:10020000B2E001C01D92AC39B207E1F710E0C9EECF
:10021000D0E000E006C021970109802FFE010E9476
:10022000090BC83ED10780E00807A9F7B4D50C94A4
:10023000110BE6CE282F30E0F901E657FE4F9491DE
:10024000F901EC5BFE4F449122503F4FF90124919C
:10025000222309F432C0992311F191509231F8F41C
:10026000E92FF0E08827E85CFE4F8F4F0C94090BD4
:1002700066016A014A015E0162014F016D0173016D
:1002800077017D01810185018B018F014F01930170
:1002900099019D01809180008F7780938000E22FEB
:1002A000F0E0EE0FFF1FEC51FF4FA591B4918FB717
:1002B000F894EC914E2B4C938FBF08958091800061
:1002C0008F7DEBCF80918000877FE7CF84B58F77DC
:1002D00084BDE5CF84B58F7DFBCF8091B0008F7753
:1002E0008093B000DCCF8091B0008F7DF9CF8091FA
:1002F00090008F7780939000D2CF809190008F7D77
:10030000F9CF80919000877FF5CF8091A0008F7703
:100310008093A000C4CF8091A0008F7DF9CF809101
:10032000A000877FF5CF809120018F7780932001F7
:10033000B6CF809120018F7DF9CF80912001877FFA
:10034000F5CF08950895AF92BF92CF92DF92EF92CA
:10035000FF920F931F93CF93DF936C017B018B016F
:10036000040F151FEB015E01AE18BF08C017D107BF
:1003700059F06991D601ED91FC910190F081E02D49
:10038000C6011995892B79F7C501DF91CF911F918E
:100390000F91FF90EF90DF90CF90BF90AF900895B6
:1003A000FC01538D448D252F30E0842F90E0821B7B
:1003B000930B541710F0CF96089501970895FC0100
:1003C000918D828D981761F0A28DAE0FBF2FB11D58
:1003D0005D968C91928D9F5F9F73928F90E00895B0
:1003E0008FEF9FEF0895FC01918D828D981731F06A
:1003F000828DE80FF11D858D90E008958FEF9FEFBE
:100400000895FC01918D228D892F90E0805C9F4F93
:10041000821B91098F739927089583EF92E0F1DF92
:1004200021E0892B09F420E0822F0895FC01A48D9E
:10043000A80FB92FB11DA35ABF4F2C91848D90E006
:1004400001968F739927848FA689B7892C93A089E9
:10045000B1898C91837080648C93938D848D981373
:1004600006C00288F389E02D80818F7D8083089506
:10047000EF92FF920F931F93CF93DF93EC0181E0F4
:10048000888F9B8D8C8D98131AC0E889F98980819B
:1004900085FF15C09FB7F894EE89FF896083E889CE
:1004A000F98980818370806480839FBF81E090E0C0
:1004B000DF91CF911F910F91FF90EF900895F62E4D
:1004C0000B8D10E00F5F1F4F0F731127E02E8C8DE7
:1004D0008E110BC00FB607FCFACFE889F98980812D
:1004E00085FFF5CFCE01A2DFF2CFEB8DEC0FFD2F14
:1004F000F11DE35AFF4FF0829FB7F8940B8FEA8902
:10050000FB8980818062D0CFCF93DF93EC01888D0F
:100510008823B1F0AA89BB89E889F9898C9185FD86
:1005200003C0808186FD0CC00FB607FCF7CF8C910D
:1005300085FFF2CF808185FFEDCFCE0177DFEACF57
:10054000DF91CF91089580E090E0892B21F065DF65
:1005500081110E94000080E090E0892B49F080E04A
:1005600090E0892B29F00E94000081110E94000078
:1005700080E090E0892B49F080E090E0892B29F021
:100580000E94000081110E94000080E090E0892B11
:1005900049F080E090E0892B29F00E940000811151
:1005A0000C94000008953FB7F89480917A029091DE
:1005B0007B02A0917C02B0917D0226B5A89B05C06C
:1005C0002F3F19F00196A11DB11D3FBFBA2FA92FD2
:1005D000982F8827BC01CD01620F711D811D911DCF
:1005E00042E0660F771F881F991F4A95D1F708953B
:1005F00085ED8093BC008091BC0084FDFCCF1092FF
:10060000CC02089520915202260F3327331F213246
:100610003105ECF42091CC02FC0190E080E0243024
:1006200069F082E00895A09152022191AC014E5CE4
:100630005D4FA40FB52FB11D2C930196861798F32B
:1006400080915202680F6093520280E0089581E029
:1006500008950895E091CE028091CD02E81730F41C
:10066000F0E0E153FD4F808190E008958FEF9FEF20
:1006700008959091CE028091CD022FEF3FEF981711
:1006800048F4E92FF0E0E153FD4F208130E09F5F17
:100690009093CE02C90108958091CD029091CE022F
:1006A000891B990B0895CF92DF92EF92FF920F93DF
:1006B0001F93CF93DF937C01CB018A0120918202AB
:1006C000222389F0EB016B01C40ED51ECC15DD058C
:1006D00061F06991D701ED91FC910190F081E02DDD
:1006E000C7011995F3CF642F8DDFC801DF91CF913A
:1006F0001F910F91FF90EF90DF90CF900895CF93CF
:10070000DF931F92CDB7DEB7698320918202222347
:10071000F9F02091A502203258F021E030E0FC01F0
:100720003383228390E080E00F90DF91CF91089592
:1007300080918302E82FF0E0EC57FD4F9981908380
:100740008F5F809383028093A50281E090E0ECCFDD
:1007500061E0CE01019656DFF8CF90E080E0089589
:10076000FC0101900020E9F73197AF01481B590BBC
:10077000BC0183EF92E0E7CD8F929F92AF92BF9240
:100780000F931F93CF93DF93CDB7DEB7A1970FB62B
:10079000F894DEBF0FBECDBF19A2423008F44AE084
:1007A0008E010F5D1F4F842E912CB12CA12CA50121
:1007B00094010DD7E62FB901CA01EA30ECF4E05DEF
:1007C000D801EE938D01232B242B252B81F790E06C
:1007D00080E0109711F0CD01C3DFA1960FB6F89419
:1007E000DEBF0FBECDBFDF91CF911F910F91BF90A4
:1007F000AF909F908F900895E95CE2CF4F925F9207
:100800006F927F928F929F92AF92BF92CF92DF9220
:10081000EF92FF920F931F93CF936B017C01742E85
:10082000AC019B01D0D6882391F084E292E0CF9175
:100830001F910F91FF90EF90DF90CF90BF90AF90FE
:100840009F908F907F906F905F904F9089CF4601DF
:100850005701E894B7F82FEF3FEF4FE75FE7C50187
:10086000B401B1D681110CC02FEF3FEF4FE75FE726
:10087000C501B401F7D418161CF488E292E0D7CF72
:100880002FEF3FEF4FE75FE4C701B60135D61816EB
:100890001CF48CE292E0CBCF2FEF3FEF4FE75FEC01
:1008A000C701B601DFD487FDF4CF20E030E0A90115
:1008B000C701B601D7D410E000E087FF09C06DE2A0
:1008C00083EF92E0D5DD8C01F7FAF094F7F8F0941D
:1008D000C0E060E070E080E09FE37C1639F020E04B
:1008E00030E040E251E4C2D4CF5FF7CFA7019601D8
:1008F00055D42B013C0122D54B015C014AE03CDF81
:100900007C01E00EF11ECC2381F1C501B40142D57A
:100910009B01AC01C301B20140D44B015C016EE20A
:1009200083EF92E0A5DDE80EF91EC150F0F020E063
:1009300030E040E251E4C501B401E2D52B013C01B5
:10094000FDD44B01B12CA12C4AE0C501B40114DF48
:10095000E80EF91EC501B4011DD59B01AC01C30110
:10096000B2011BD44B015C01E0CFC701CF911F91B5
:100970000F91FF90EF90DF90CF90BF90AF909F903E
:100980008F907F906F905F904F9008951F920F927D
:100990000FB60F9211240BB60F922F933F934F93E4
:1009A0005F936F937F938F939F93AF93BF93EF93D7
:1009B000FF9383EF92E03ADDFF91EF91BF91AF910A
:1009C0009F918F917F916F915F914F913F912F9167
:1009D0000F900BBE0F900FBE0F901F9018951F9297
:1009E0000F920FB60F9211240BB60F922F938F9385
:1009F0009F93EF93FF93E0910303F09104038081B1
:100A0000E0910903F0910A0382FD1DC0908180915D
:100A10000C038F5F8F7320910D03821741F0E091DB
:100A20000C03F0E0ED50FD4F958F80930C03FF9188
:100A3000EF919F918F912F910F900BBE0F900FBE52
:100A40000F901F9018958081F2CF1F920F920FB6D2
:100A50000F9211242F933F938F939F93AF93BF9344
:100A60008091760290917702A0917802B0917902FC
:100A70003091750223E0230F2D3758F50196A11D03
:100A8000B11D209375028093760290937702A09314
:100A90007802B093790280917A0290917B02A091C2
:100AA0007C02B0917D020196A11DB11D80937A0256
:100AB00090937B02A0937C02B0937D02BF91AF9193
:100AC0009F918F913F912F910F900FBE0F901F908C
:100AD000189526E8230F0296A11DB11DD2CF1F92B3
:100AE0000F920FB60F9211240BB60F922F933F93D4
:100AF0004F935F936F937F938F939F93AF93BF9326
:100B0000EF93FF938091B900887F803609F44CC041
:100B100008F03FC0883209F4A8C028F5803109F4F4
:100B20009CC0C8F4882309F4FAC0883009F495C041
:100B3000FF91EF91BF91AF919F918F917F916F91B5
:100B40005F914F913F912F910F900BBE0F900FBE71
:100B50000F901F901895883109F487C0803241F7B3
:100B60008093CA0214C0803409F49CC040F48033DE
:100B7000B9F38833E9F68093CA0285ECAFC08035BB
:100B800009F484C0883509F495C0883489F630DDCD
:100B9000CFCF883909F48CC038F5883729F050F464
:100BA000883611F0803721F683E08093CC021092D2
:100BB000740257C0883809F47BC0803919F0803836
:100BC00009F0B6CF80917402803208F071C0E091D4
:100BD000740281E08E0F809374028091BB00F0E07C
:100BE000EC5AFD4F80833DC0803B39F0E0F4803A01
:100BF00009F479C0883A09F09BCF84E08093CC0255
:100C00001092530210925202E0918002F091810200
:100C100019958091520281110FC081E08093520298
:100C20001092320209C0803C09F4A7CF883C09F435
:100C3000A4CF883B09F07CCFE091530281E08E0F76
:100C400080935302F0E0EE5CFD4F80818093BB0007
:100C5000909153028091520229C08091C7028093E3
:100C6000BB0085EC8093BC0063CF9091C90280915A
:100C7000C802981758F5E091C90281E08E0F809361
:100C8000C902F0E0EA55FD4F8081E9CFE091C90249
:100C900081E08E0F8093C9028091BB00F0E0EA559D
:100CA000FD4F80839091C9028091C8029817C8F2C5
:100CB00085E8D8CFE091C90281E08E0F8093C90208
:100CC0008091BB00F0E0EA55FD4F80838091CB021C
:100CD00081115DCF81E08093C60284EA8093BC00DD
:100CE0001092CC0225CF85EC8093BC001092CC02F0
:100CF00080917402803230F4E0917402F0E0EC5A9A
:100D0000FD4F10826091740270E0E0917E02F091DC
:100D10007F0284E592E019951092740209CF109237
:100D2000CA0235CFE3EFF2E01382128288EE93E03D
:100D3000A0E0B0E084839583A683B78324E032E00B
:100D40003183208325EC30E03587248724EC30E0A4
:100D50003787268720EC30E0318B208B21EC30E088
:100D6000338B228B22EC30E0358B248B26EC30E069
:100D7000378B268B118E128E138E148EE0E9F3E0E2
:100D80001382128284839583A683B78386E192E0DF
:100D9000918380830895789484B5826084BD84B5FE
:100DA000816084BD85B5826085BD85B5816085BD66
:100DB00080916E00816080936E001092810080911E
:100DC00081008260809381008091810081608093A6
:100DD0008100809180008160809380008091B100CB
:100DE00084608093B1008091B00081608093B000F6
:100DF0008091910082608093910080919100816048
:100E00008093910080919000816080939000809108
:100E1000A10082608093A1008091A10081608093F5
:100E2000A1008091A00081608093A00080912101A9
:100E30008260809321018091210181608093210152
:100E40008091200181608093200180917A008460EC
:100E500080937A0080917A00826080937A008091FA
:100E60007A00816080937A0080917A008068809314
:100E70007A001092C1001092EF021092F0021092CC
:100E8000F1021092F2021092CE021092CD02109254
:100E900083021092A5021092CC0281E08093CB02D3
:100EA0001092C60284E1C6D985E1C4D98091B90007
:100EB0008E7F8093B9008091B9008D7F8093B900B7
:100EC00088E48093B80085E48093BC0081EA91E0D7
:100ED000909381028093800282EA91E090937F0256
:100EE00080937E02E0910303F091040382E080830B
:100EF000E091FF02F09100031082E0910103F09174
:100F0000020381E1808310920B03E0910703F091CB
:100F1000080386E08083E0910503F0910603808159
:100F200080618083E0910503F091060380818860F1
:100F30008083E0910503F0910603808180688083BF
:100F4000E0910503F091060380818F7D8083C1E0ED
:100F50009AE4592EDFEF25EE722E35EC632EC09306
:100F600082025092A402109283021092A50262E0C3
:100F700080E993E0C4DB9091A5029132E0F5809185
:100F8000CC028111FCCF82E08093CC021092CB0284
:100F9000D093CA021092C9029093C802E4E8F2E02A
:100FA000A6EAB2E080E09813D7C01092C702809101
:100FB000C70284698093C7028091C602813009F01C
:100FC000CFC01092C6028091C7028093BB0080916F
:100FD000BC0083FDF8CF6092BC008091CC028230CF
:100FE000E1F38091CA028F3F31F08091CA028032D2
:100FF00011F08091CA02109283021092A502109201
:1010000082028091CC028111FCCFC093CC02C093AC
:10101000CB02D093CA021092C902C093C802C093F7
:10102000C7028091C70284698093C7028091C6027B
:10103000813009F098C01092C6028091C702809357
:10104000BB008091BC0083FDF8CF6092BC00809112
:10105000CC028130E1F38091C90292E0823010F439
:101060009091C902A6EAB2E0EFECF2E080E08913C9
:101070007DC01092CE028093CD0280E993E0F9DA30
:10108000F82E80E993E0F5DA1F2D00E0800F911F24
:10109000BC01990F880B990B7FD120E030E040EA2A
:1010A0005FE32ED22FE632E143E85AE329D24B0127
:1010B0005C01C090EF02D090F002E090F102F0905D
:1010C000F20220E030E0A901C701B601CBD08111C6
:1010D00051C08092EF029092F002A092F102B09281
:1010E000F202C090EF02D090F002E090F102F09096
:1010F000F20242E0C501B40181DB80E392E030DB23
:1011000042E0C701B6017ADB81E392E029DB4BDAEA
:101110006B017C0188EE882E83E0982EA12CB12CE7
:1011200042DA6C197D098E099F09683E734081057A
:101130009105B0F321E0821A9108A108B10888EE68
:10114000C80E83E0D81EE11CF11C81149104A10497
:10115000B10431F7F8D903CF21912D938F5F23CFBD
:101160007092BC003ACF7092BC0071CF2D91219348
:101170008F5F7DCFA5019401C701B6010FD020E09C
:1011800030E040E05FE3BCD16093EF027093F00287
:101190008093F1029093F202A4CF5058BB27AA2764
:1011A0000ED070C161D130F066D120F031F49F3F94
:1011B00011F41EF456C10EF4E095E7FB4CC1E92F83
:1011C00072D180F3BA17620773078407950718F086
:1011D00071F49EF58AC10EF4E0950B2EBA2FA02D66
:1011E0000B01B90190010C01CA01A0011124FF27D4
:1011F000591B99F0593F50F4503E68F11A16F040CF
:10120000A22F232F342F4427585FF3CF46953795CD
:101210002795A795F0405395C9F77EF41F16BA0B92
:10122000620B730B840BBAF09150A1F0FF0FBB1F40
:10123000661F771F881FC2F70EC0BA0F621F731F89
:10124000841F48F4879577956795B795F7959E3FE6
:1012500008F0B3CF9395880F08F09927EE0F979574
:1012600087950895D4D008F481E008950CD00AC180
:1012700002D140F0F9D030F021F45F3F19F0EBC01B
:10128000511134C1EEC00FD198F39923C9F35523FE
:10129000B1F3951B550BBB27AA2762177307840769
:1012A00038F09F5F5F4F220F331F441FAA1FA9F31F
:1012B00033D00E2E3AF0E0E830D091505040E69511
:1012C000001CCAF729D0FE2F27D0660F771F881F72
:1012D000BB1F261737074807AB07B0E809F0BB0B61
:1012E000802DBF01FF2793585F4F2AF09E3F510585
:1012F00068F0B1C0FBC05F3FECF3983EDCF386952D
:1013000077956795B795F7959F5FC9F7880F911DFA
:101310009695879597F90895E1E0660F771F881FE6
:10132000BB1F621773078407BA0720F0621B730B99
:10133000840BBA0BEE1F88F7E0950895BCD088F0B7
:101340009F5790F0B92F9927B751A0F0D1F0660FB1
:10135000771F881F991F1AF0BA95C9F712C0B130CC
:1013600081F0C3D0B1E00895C0C0672F782F8827DF
:10137000B85F39F0B93FCCF3869577956795B3950B
:10138000D9F73EF490958095709561957F4F8F4F7A
:101390009F4F0895E89409C097FB3EF4909580957F
:1013A000709561957F4F8F4F9F4F9923A9F0F92F2B
:1013B00096E9BB279395F695879577956795B795A9
:1013C000F111F8CFFAF4BB0F11F460FF1BC06F5F8F
:1013D0007F4F8F4F9F4F16C0882311F096E911C0A1
:1013E000772321F09EE8872F762F05C0662371F0C2
:1013F00096E8862F70E060E02AF09A95660F771FD6
:10140000881FDAF7880F9695879597F90895990FB1
:101410000008550FAA0BE0E8FEEF16161706E807BE
:10142000F907C0F012161306E407F50798F0621BDF
:10143000730B840B950B39F40A2661F0232B242BB4
:10144000252B21F408950A2609F4A140A6958FEFD3
:10145000811D811D089597F99F6780E870E060E025
:1014600008959FEF80EC089500240A94161617063D
:1014700018060906089500240A9412161306140685
:1014800005060895092E0394000C11F4882352F0E8
:10149000BB0F40F4BF2B11F460FF04C06F5F7F4FA0
:1014A0008F4F9F4F089557FD9058440F551F59F087
:1014B0005F3F71F04795880F97FB991F61F09F3F41
:1014C00079F087950895121613061406551FF2CF6A
:1014D0004695F1DF08C0161617061806991FF1CFBA
:1014E00086957105610508940895E894BB276627E1
:1014F0007727CB0197F908958ADF08F48FEF0895D5
:101500000BD0C0CFB1DF28F0B6DF18F0952309F07B
:10151000A2CFA7CF1124EACFC6DFA0F3959FD1F3C6
:10152000950F50E0551F629FF001729FBB27F00D91
:10153000B11D639FAA27F00DB11DAA1F649F6627E6
:10154000B00DA11D661F829F2227B00DA11D621F35
:10155000739FB00DA11D621F839FA00D611D221FEF
:10156000749F3327A00D611D231F849F600D211DD3
:10157000822F762F6A2F11249F5750408AF0E1F076
:1015800088234AF0EE0FFF1FBB1F661F771F881FBF
:1015900091505040A9F79E3F510570F05CCFA6CF07
:1015A0005F3FECF3983EDCF3869577956795B795AA
:1015B000F795E7959F5FC1F7FE2B880F911D9695D4
:1015C000879597F9089523DF880B990B0895A1E279
:1015D0001A2EAA1BBB1BFD010DC0AA1FBB1FEE1FAD
:1015E000FF1FA217B307E407F50720F0A21BB30BF8
:1015F000E40BF50B661F771F881F991F1A9469F774
:1016000060957095809590959B01AC01BD01CF01CF
:101610000895EE0FFF1F881F8BBF0790F691E02DF6
:061620001994F894FFCFBD
:10162600000000003802A301D00184020102DF019C
:10163600F301000000007F035303AD0329034C03AD
:1016460039032A036E616E00696E66006F76660066
:021656002C0066
:00000001FF
